:020000040800F2
:1000000080090020CD010008CF210008C721000889
:10001000CB2100081D0400085D2700080000000037
:10002000000000000000000000000000FD210008AA
:100030007504000800000000D1210008FF2100081D
:10004000E7010008E7010008E7010008E7010008F0
:10005000E7010008E7010008E7010008E7010008E0
:10006000E7010008E7010008E70100082104000893
:10007000E7010008E7010008E7010008E7010008C0
:10008000E7010008E7010008E7010008E7010008B0
:10009000E7010008E7010008E7010008E7010008A0
:1000A000E7010008E7010008E7010008E701000890
:1000B000E701000861220008E7010008E7010008E5
:1000C000E7010008E7010008E7010008E701000870
:1000D000E70100084D270008E7010008E7010008D4
:1000E000E7010008E7010008E7010008E701000850
:1000F000E7010008E7010008E7010008E701000840
:10010000E7010008E7010008E7010008E70100082F
:10011000E7010008E7010008E7010008E70100081F
:10012000E7010008E7010008E7010008E70100080F
:1001300000F002F800F03AF80AA090E8000C8244BF
:100140008344AAF10107DA4501D100F02FF8AFF29C
:10015000090EBAE80F0013F0010F18BFFB1A43F0A5
:1001600001031847982A0000B82A0000103A24BF5B
:1001700078C878C1FAD8520724BF30C830C144BF0C
:1001800004680C607047000000230024002500264E
:10019000103A28BF78C1FBD8520728BF30C148BFEA
:1001A0000B6070471FB51FBD10B510BD00F05AF8A9
:1001B0001146FFF7F7FF02F065FC00F078F803B492
:1001C000FFF7F2FF03BC02F0E7FA0000094880479E
:1001D00009480047FEE7FEE7FEE7FEE7FEE7FEE729
:1001E000FEE7FEE7FEE7FEE704480549054A064B41
:1001F0007047000009220008310100088003002038
:1002000080090020800500208005002070474FF005
:10021000000200B5134694469646203922BFA0E856
:100220000C50A0E80C50B1F12001BFF4F7AF090762
:1002300028BFA0E80C5048BF0CC05DF804EB890053
:1002400028BF40F8042B08BF704748BF20F8022B96
:1002500011F0804F18BF00F8012B704770477047AE
:1002600070477047754600F02BF8AE4605006946AA
:10027000534620F00700854618B020B5FFF7B4FFBD
:10028000BDE820404FF000064FF000074FF0000897
:100290004FF0000B21F00701AC46ACE8C009ACE818
:1002A000C009ACE8C009ACE8C0098D46704710B57C
:1002B0000446AFF300802046BDE81040FFF77FBF43
:1002C000004870472003002070B5044600252068D0
:1002D000806800F00100F0B12068806820F0010023
:1002E0002168886000F0C4FE05460EE000F0C0FE04
:1002F000401B022809D9A06A40F01000A062E06A01
:1003000040F00100E062012070BD2068806800F0CC
:1003100001000028EAD10020F6E770B505466C6AB6
:10032000A06A00F05000E0B9A06A40F40070A0623A
:100330002068806800F46020B0F5602F0DD1207B2C
:1003400058B9A06A20F48070A062A06A00F48050BE
:1003500018B9A06A40F00100A062204600F0BEF982
:1003600003E0206A016B2846884770BD70B50546DA
:100370006C6AA06A40F04000A062E06A40F00400AD
:10038000E062204600F0ACF970BD70B50446656AC5
:10039000284600F0A4F970BD38B5044600250020B9
:1003A00000902068806800F0010080BB20688068B1
:1003B00040F0010021688860164800681649B0FBCB
:1003C000F1F0009002E00098401E00900098002894
:1003D000F9D100F04DFE054613E000F049FE401B48
:1003E00002280ED9A06A40F01000A062E06A40F036
:1003F0000100E06200BF002084F8240000BF01205B
:1004000038BD2068806800F001000028E5D0002099
:10041000F6E700000000002040420F0000BFFEE7AA
:100420000748006800F0020040B10120054908704B
:100430000348406840F002000149486070470000EE
:10044000000002401900002030B590F8405001240F
:10045000AC40C56B6C60046863604468102C04D1C8
:100460000468A2600468E16003E00468A1600468B5
:10047000E26030BD70470000F8B504460026002059
:10048000009000BF94F82400012801D10220F8BD9B
:10049000012084F8240000BF2046FFF715FF064620
:1004A000002E62D1A06A20F4885040F00200A062C1
:1004B000022000F08DFE30490968B1FBF0F04000E9
:1004C000009002E00098401E009000980028F9D1AA
:1004D0002046FFF761FF2068806840F0080021682F
:1004E000886000F0C5FD054611E000F0C1FD401B2D
:1004F0000A280CD9A06A20F0020040F01000A06287
:1005000000BF002084F8240000BF0120BFE720685E
:10051000806800F008000028E7D12068806840F07B
:1005200004002168886000F0A3FD054611E000F09A
:100530009FFD401B0A280CD9A06A20F0020040F061
:100540001000A06200BF002084F8240000BF01203A
:100550009DE72068806800F004000028E7D1A06AC9
:1005600020F0020040F00100A06200BF002084F8EB
:10057000240000BF30468AE70000002038B502465C
:1005800000230020009000BF92F82400012801D130
:10059000022038BD012082F8240000BF48680728E7
:1005A00012D21068406B0C79641E04EB84051F2482
:1005B000AC40A0430D796D1E05EB85050C68AC4081
:1005C00020431468606327E048680D2812D2106841
:1005D000006B0C79E41F04EB84051F24AC40A0439E
:1005E0000D79ED1F05EB85050C68AC4020431468C0
:1005F000206311E01068C06A0C790D3C04EB84059F
:100600001F24AC40A0430D790D3D05EB85050C681A
:10061000AC4020431468E06208680A2812D31068CE
:10062000C0680C780A3C04EB44050724AC40A043A6
:100630000D780A3D05EB45058C68AC4020431468F5
:10064000E0600FE0106800690C7804EB44050724B3
:10065000AC40A0430D7805EB45058C68AC402043C9
:10066000146820610868102802D00868112827D172
:10067000174C1068A0421ED11068806800F400007A
:10068000F0B91068806840F400001468A060086841
:10069000102815D10F4800680F4CB0FBF4F000EBA8
:1006A00080004000009002E00098401E00900098FA
:1006B0000028F9D104E0906A40F020009062012304
:1006C00000BF002082F8240000BF184661E7000048
:1006D000002401400000002040420F007047704796
:1006E000704700002DE9F041044600270025002650
:1006F000A84614B90120BDE8F081A06810B1207DA2
:1007000000B100BFA06A30B90020E06284F8240084
:10071000204600F097F82046FFF7D6FD0746A06A6E
:1007200000F01000002873D1002F7ED1A06A20F4C1
:10073000885040F00200A0623F4AD4E90001904294
:1007400008D1E069B0F5402F02D14FF4002002E05B
:10075000E06900E0E0690143207B41EA4000064394
:10076000A068B0F5807F02D0A068012802D14FF4C4
:10077000807000E000200543207D012811D1207BFE
:1007800038B9A069401E4FF4006141EA403005438A
:1007900007E0A06A40F02000A062E06A40F001009B
:1007A000E0622068406820F469402843216848607E
:1007B0002068806821490840304321688860A0682B
:1007C000B0F5807F02D0A068012802D14FF480707C
:1007D00000E00020B0F5807F03D1208A401E4FEA60
:1007E00000582068C06A20F4700040EA08002168C0
:1007F000C8622068806812490840B04209D10020D0
:10080000E062A06A20F0020040F00100A06211E066
:100810000BE0A06A20F0020040F01000A062E06A45
:1008200040F00100E062012704E0A06A40F01000FF
:10083000A062012738465EE7003C0140FDF7E1FF7A
:10084000FE0E1FFF10B58CB004461A49206888427E
:100850002ED1182102A8FFF7DAFC00BF16488069E4
:1008600040F40070144988610846806900F4007003
:10087000019000BF00BF00BF0846806940F004003F
:1008800088610846806900F00400019000BF00BF45
:10089000022002908003049002A800F033FD0220A1
:1008A00008900320099008A9044800F031FA00BF1D
:1008B0000CB010BD002401400010024000080140AF
:1008C0002DE9F04104460D46164600275749206899
:1008D000884203D056492068884205D15348001DFC
:1008E000006800F4702000E0002000287ED100BFE6
:1008F00094F82400012802D10220BDE8F0810120F3
:1009000084F8240000BF2046FFF746FD0746002F6D
:100910006DD1A06A40F60161884340F48070A06206
:1009200043492068884209D14048001D006800F40E
:10093000702008B9012002E0002000E0012078B119
:10094000A06A20F48010A0622068406800F48060F3
:1009500000B3A06A20F4005040F48050A06219E077
:10096000A06A40F48010A06230492068884203D019
:100970002F492068884205D12C48001D006800F4EA
:10098000806000E0002028B1A06A20F4005040F40C
:100990008050A062A06A00F4805020B1E06A20F08C
:1009A0000600E06201E00020E06200BF002084F861
:1009B000240000BF1F48216A88621F48216AC8625C
:1009C0001E48216A08636FF00200216808602068F1
:1009D000806840F4807021688860226802F14C01D0
:1009E00033462A46206A00F045F901E01AE014E097
:1009F0002068806800F46020B0F5602F06D1206880
:100A0000806840F4A000216888600CE0206880685D
:100A100040F480102168886005E000BF002084F861
:100A2000240000E00127384667E700000024014069
:100A3000002801401B0300088B0300086D03000819
:100A400070B50446002594F82100022803D0042044
:100A5000A0630125C1E02068006820F00E00216835
:100A600008602068006820F00100216808605C4987
:100A70002068884252D95A4978392068884201D181
:100A8000012047E0564964392068884201D110208E
:100A900040E0534950392068884201D1801539E03F
:100AA0004F493C392068884201D1801432E04C49DA
:100AB00028392068884202D14FF480302AE0484922
:100AC00014392068884202D14FF4801022E0444952
:100AD0002068884201D140041CE0424920688842D5
:100AE00001D1012016E03F4914312068884201D12C
:100AF00010200FE03B4928312068884201D1801541
:100B000008E038493C312068884201D1801401E076
:100B10004FF480303349091F086051E0304978397B
:100B20002068884201D1012047E02D4964392068BE
:100B3000884201D1102040E029495039206888427C
:100B400001D1801539E026493C392068884201D11D
:100B5000801432E0224928392068884202D14FF4BB
:100B600080302AE01E4914392068884202D14FF4AF
:100B7000801022E01A492068884201D140041CE01C
:100B800018492068884201D1012016E01549143126
:100B90002068884201D110200FE0124928312068D6
:100BA000884201D1801508E00E493C312068884216
:100BB00001D1801401E04FF4803009498039486048
:100BC000012084F8210000BF002084F8200000BF2D
:100BD000606B10B12046616B8847284670BD0000ED
:100BE00080000240080402400146002209B90120A9
:100BF00070471E4B086898420BD21D4B0868C01AFC
:100C00001423B0FBF3F08000086419480838C86367
:100C10000AE0164B0868C01A1423B0FBF3F08000FA
:100C2000086412480838C863022081F82100086867
:100C3000026843F6F0708243D1E901031843CB68A0
:100C400018430B6918434B6918438B691843CB69E8
:100C5000184302430868026000208863012081F87D
:100C60002100002081F8200000BFC1E708040240F5
:100C7000080002402DE9F04104460D4616461F4685
:100C80004FF0000800BF94F82000012802D1022094
:100C9000BDE8F081012084F8200000BF94F8210015
:100CA00001282CD1022084F821000020A0632068B4
:100CB000006820F00100216808603B463246294662
:100CC0002046FFF7C1FBE06A30B12068006840F0C1
:100CD0000E00216808600BE02068006820F0040026
:100CE000216808602068006840F00A0021680860F8
:100CF0002068006840F001002168086006E000BF3D
:100D0000002084F8200000BF4FF002084046BFE7F3
:100D10002DE9F847024600239C467BE14FF001088D
:100D200008FA03F4D1F8008008EA0400A0427DD15B
:100D3000DFF8F4A2D1F80480A8EB0A09D0453AD034
:100D400014DCB8F1030F50D009DCB8F1000F31D03A
:100D5000B8F1010F1CD0B8F1020F49D120E0B8F171
:100D6000110F18D0B8F1120F42D11EE0B9F5881F4B
:100D700025D006DCB9F5803F20D0B9F5801F37D1EA
:100D80001AE0B9F5001F18D0B9F5041F30D117E0EB
:100D9000D1F80CC02DE0D1F80C8008F1040C28E04B
:100DA000D1F80C8008F1080C23E0D1F80C8008F190
:100DB0000C0C1EE000BF00BF00BF00BF00BF00BFA3
:100DC000D1F80880B8F1000F02D14FF0040C0BE00D
:100DD000D1F80880B8F1010F03D14FF0080C14616D
:100DE00002E04FF0080C546103E04FF0000C00E00B
:100DF00000BF00BFFF2801D8904601E002F10408BF
:100E00004646FF2802D84FEA830803E0A3F108080A
:100E10004FEA88084746D6F800804FF00F0909FAD4
:100E200007F928EA09080CFA07F900E07AE048EA2D
:100E30000908C6F80080D1F8048008F08058B8F19D
:100E4000805F6FD100BFDFF8E481D8F8188048F0E8
:100E50000108DFF8D891C9F81880C846D8F818807A
:100E600008F00108CDF8008000BF00BF4FEAB93894
:100E70004FEA930958F829504FEA83784FEA1879D6
:100E80004FF00F0808FA09F825EA0805DFF8A081F5
:100E9000424502D14FF0000824E0DFF89881424536
:100EA00002D14FF001081DE0DFF88C81424502D1EC
:100EB0004FF0020816E0DFF88481424502D14FF07E
:100EC00003080FE0DFF87881424502D14FF00408B3
:100ED00008E0DFF87081424502D14FF0050801E0DB
:100EE0004FF006084FEA83794FEA197908FA09F8B2
:100EF00048EA0505DFF850814FEA930948F8295080
:100F0000D1F8048008F48038B8F5803F0BD1DFF8C1
:100F10003C81D8F8008048EA0008DFF83091C9F831
:100F200000800AE075E0DFF82481D8F8008028EA24
:100F30000008DFF81891C9F80080D1F8048008F49F
:100F40000038B8F5003F0ED1DFF8008108F1040841
:100F5000D8F8008048EA0008DFF8F09009F10409A9
:100F6000C9F800800DE0DFF8E48008F10408D8F843
:100F7000008028EA0008DFF8D49009F10409C9F8D4
:100F80000080D1F8048008F48018B8F5801F0ED1D5
:100F9000DFF8B88008F10808D8F8008048EA0008AF
:100FA000DFF8A89009F10809C9F800800DE0DFF822
:100FB0009C8008F10808D8F8008028EA0008DFF8CB
:100FC0008C9009F10809C9F80080D1F8048008F470
:100FD0000018B8F5001F0ED1DFF8708008F10C087A
:100FE000D8F8008048EA0008DFF8609009F10C09A1
:100FF000C9F800800DE0DFF8548008F10C08D8F83B
:10100000008028EA0008DFF8449009F10C09C9F8CB
:1010100000805B1CD1F8008028FA03F8B8F1000FBB
:101020007FF47CAEBDE8F88700001110001002408C
:1010300000080140000C0140001001400014014074
:1010400000180140001C014008000140000401405C
:1010500010B5C26821EA020302EA010443EA04432C
:10106000036110BD0AB1016101E00B040361704727
:101070000148006870470000100000200348006825
:1010800003490978084401490860704710000020AE
:101090001800002010B50848006840F0100006490C
:1010A0000860032000F080F80F2000F007F800F03F
:1010B0002BF8002010BD00000020024070B504464F
:1010C0000E4800784FF47A71B1FBF0F00C490968D2
:1010D000B1FBF0F5284600F015FD08B1012070BD08
:1010E000102C07D200222146501E00F01EF80548A1
:1010F000046001E00120F2E70020F0E71800002082
:101100000000002014000020704701460846002817
:1011100009DB00F01F0301229A4043099B0003F101
:10112000E023C3F8002100BF70472DE9F05F80463F
:101130000D461646002701F013FB074639462A469E
:10114000334601F00700C0F1070ABAF1040F02D9D3
:101150004FF0040A01E0C0F1070AD14600F1040A89
:10116000BAF1070F02D24FF0000A01E0A0F1030A22
:10117000D4464FF0010A0AFA09FAAAF1010A0AEA6A
:10118000020A0AFA0CFA4FF0010B0BFA0CFBABF156
:10119000010B0BEA030B4AEA0B042146404601F01F
:1011A000E7FABDE8F09F000000BF00F00702064B21
:1011B00019684FF6FF031940044B0B4343EA022121
:1011C000014B196000BF70470CED00E00000FA050C
:1011D0002DE9F04385B0064642A30FCB01AC0FC406
:1011E00044A0006800904FF000080025002700246C
:1011F000A146042E36D004DC012E3BD0022E6BD14A
:101200005FE0082E32D0102E66D13B48446800685B
:1012100000F0807000B301A8C4F38341475C04F47C
:10122000803070B134484068C0F340401DF8008001
:1012300004F4803040B13148B0FBF8F000FB07F512
:1012400002E02F4807FB00F52B48406800F48000BF
:10125000B0F5800F01D1A94603E068000321B0FB7F
:10126000F1F93AE000F0D2F9814636E000F0CEF92B
:10127000814632E02048046A04F44070B0F5807F73
:1012800005D104F0020010B14FF4004918E004F455
:101290004070B0F5007F07D11748406A00F00200A7
:1012A00010B149F640490BE004F44070B0F5407FBE
:1012B00006D11148006800F4003008B14FF224490B
:1012C0000BE000F093F90C494968C1F38131491CE6
:1012D0004900B0FBF1F900E000BF00BF484605B08F
:1012E000BDE8F08302030405060708090A0B0C0D8C
:1012F0000E0F1010010200000010024000127A00D0
:1013000000093D00F8B5044600260025207800F0CD
:10131000010000286BD000274348C06900F08050CE
:1013200070B900BF4048C06940F080503E49C86174
:101330000846C06900F08050009000BF00BF012740
:101340003A48006800F48070B0B93848006840F44A
:10135000807036490860FFF78BFE064606E0FFF70F
:1013600087FE801B642801D90320F8BD2F48006840
:1013700000F480700028F2D02B48006A00F4407519
:101380002DB3A08800F44070A84220D02648006AFF
:1013900020F440750120264908600020086022489A
:1013A000056205F0010090B1FFF762FE064608E015
:1013B000FFF75EFE801B41F28831884201D903208D
:1013C000D3E71948006A00F002000028F0D0164860
:1013D000006A20F440706168084313490862012FD5
:1013E00004D10846C06920F08050C86100BF207851
:1013F00000F00200022807D10B48406820F440406A
:10140000A168084308494860207800F010001028BF
:1014100007D10548406820F480006169084302490B
:1014200048600020A1E7000000100240007000406A
:101430004004424270B504460D460CB9012070BD0F
:101440005A48006800F00700A8420ED257480068CA
:1014500020F007002843554908600846006800F05E
:101460000700A84201D00120E9E7207800F002003F
:1014700002281DD1207800F00400042805D14C4832
:10148000406840F4E0604A494860207800F0080075
:10149000082805D14648406840F4605044494860F7
:1014A0004348406820F0F000A16808434049486084
:1014B000207800F0010078B36068012806D13C482C
:1014C000006800F4003090B90120B8E76068022895
:1014D00006D13748006800F0007040B90120AEE73F
:1014E0003348006800F0020008B90120A7E730483F
:1014F000406820F00300616808432D494860FFF709
:10150000B7FD064609E0FFF7B3FD801B41F28831C5
:10151000884202D9032092E707E02548406800F09E
:101520000C006168B0EB810FEDD12048006800F03D
:101530000700A8420ED91D48006820F00700284384
:101540001A4908600846006800F00700A84201D068
:10155000012074E7207800F00400042807D1144823
:10156000406820F4E060E168084311494860207851
:1015700000F00800082808D10D48406820F46050A9
:10158000216940EAC1000A49486000F03FF8084973
:101590004968C1F30311074A515CC8400649086015
:1015A00006480068FFF78AFD002048E70020024057
:1015B00000100240E42B000800000020140000206E
:1015C00001480068704700000000002000B5FFF7E8
:1015D000F7FF04494968C1F30221034A515CC8403E
:1015E00000BD000000100240F42B000800B5FFF71A
:1015F000E7FF04494968C1F3C221034A515CC8406E
:1016000000BD000000100240F42B0008F0B585B0CA
:101610000FF26C0C9CE8E01001A8A0E8E0101CA5FB
:101620002D68009500210022002300240020194D80
:10163000696801F00C05F5B1042D02D0082D19D10F
:1016400001E0154819E001ADC1F38346AC5D01F43A
:10165000803555B10F4D6D68C5F340451DF8052027
:101660000D4D6543B5FBF2F302E00C4D04FB05F3B1
:10167000184602E000BF084800BF00BF05B0F0BD3B
:1016800002030405060708090A0B0C0D0E0F1010C3
:10169000010200000010024000127A0000093D0023
:1016A000F8B504460CB90120F8BD207800F001001F
:1016B000002878D0F848406800F00C0004280CD0CE
:1016C000F548406800F00C00082811D1F248406845
:1016D00000F48030B0F5803F0AD1EF48006800F494
:1016E000003000285FD0606800285CD10120DBE773
:1016F00000BF6068B0F5803F06D1E748006840F45D
:101700008030E549086028E0606858B9E248006820
:1017100020F48030E04908600846006820F480200A
:1017200008601AE06068B0F5A02F0BD1DA480068B5
:1017300040F48020D84908600846006840F48030B2
:1017400008600AE0D448006820F48030D24908607C
:101750000846006820F48020086000BF606888B1F7
:10176000FFF786FC054606E0FFF782FC401B642875
:1017700001D9032098E7C848006800F40030002829
:10178000F2D010E0FFF774FC054606E0FFF770FCAE
:10179000401B642801D9032086E7BF48006800F495
:1017A00000300028F2D1207800F00200022857D142
:1017B000B948406800F00C0050B1B748406800F0EC
:1017C0000C00082818D1B448406800F4803098B95B
:1017D000B148006800F0020020B12069012801D062
:1017E000012061E7AC48006820F0F800616940EA38
:1017F000C100A949086033E02069E8B10120A74988
:101800000860FFF735FC054606E0FFF731FC401B9A
:10181000022801D9032047E79F48006800F0020032
:101820000028F2D09C48006820F0F800616940EA86
:10183000C1009949086013E0002098490860FFF74B
:1018400017FC054606E0FFF713FC401B022801D9F0
:10185000032029E79048006800F002000028F2D138
:10186000207800F0080008282DD1A069B8B1012027
:101870008B490860FFF7FCFB054606E0FFF7F8FB25
:10188000401B022801D903200EE78348406A00F07C
:1018900002000028F2D0012000F09CFC13E00020A0
:1018A0007F490860FFF7E4FB054606E0FFF7E0FB31
:1018B000401B022801D90320F6E67748406A00F071
:1018C00002000028F2D1207800F00400042873D12F
:1018D00000277148C06900F0805070B900BF6E48A1
:1018E000C06940F080506C49C8610846C06900F08A
:1018F0008050009000BF00BF01276A48006800F4D4
:101900008070B0B96748006840F48070654908602D
:10191000FFF7AEFB054606E0FFF7AAFB401B642875
:1019200001D90320C0E65F48006800F480700028F9
:10193000F2D000BFE068012806D15748006A40F0A5
:1019400001005549086227E0E06858B95248006A2A
:1019500020F00100504908620846006A20F00400A7
:10196000086219E0E06805280BD14B48006A40F096
:101970000400494908620846006A40F00100086214
:101980000AE04548006A20F0010043490862084621
:10199000006A20F00400086200BFE068A0B1FFF711
:1019A00067FB054609E0FFF763FB401B41F2883106
:1019B000884202D9032077E622E03748006A00F027
:1019C00002000028EFD012E0FFF752FB054608E0C6
:1019D000FFF74EFB401B41F28831884201D90320BA
:1019E00062E62D48006A00F002000028F0D1012FC5
:1019F00005D12948C06920F080502749C86100BF3F
:101A0000E069C8B32448406800F00C00082860D0A2
:101A1000E069022848D1002020490866FFF728FB2A
:101A2000054606E0FFF724FB401B022801D90320EE
:101A30003AE61948006800F000700028F2D1206AE8
:101A4000B0F5803F07D11448406820F40030A16809
:101A5000084311494860D4E9080108430E49496820
:101A600021F4741108430C49486001200B490866B1
:101A7000FFF7FEFA054607E03DE0FFF7F9FA401BE5
:101A8000022801D903200FE60348006800F0007027
:101A90000028F2D02FE00000001002400000424277
:101AA0008004424200700040002014490866FFF79D
:101AB000DFFA054606E0FFF7DBFA401B022801D9F2
:101AC0000320F1E50E48006800F000700028F2D114
:101AD00011E0E069012800D1E6E50948466806F40E
:101AE0008031206A814204D106F47011606A81421B
:101AF00001D00120D8E50020D6E5000000004242D8
:101B00000010024070B504462546681EB0F1807F83
:101B100001D301200FE0681E4FF0E02148610F2142
:101B20004FF0FF3000F024FE00204FF0E0218861EC
:101B300007200861002070BD70B504460D461646AA
:101B400000BF94F83C00012801D1022070BD0120A3
:101B500084F83C0000BF36B1042E1BD0082E31D0D3
:101B60000C2E5ED145E02946206800F0EBFB206892
:101B7000806940F00800216888612068806920F051
:101B80000400216888612068806929690843216808
:101B9000886147E02946206800F00CFC20688069D5
:101BA00040F40060216888612068806920F48060CA
:101BB0002168886120688069296940EA01202168DC
:101BC00088612FE02946206800F032FC2068C06957
:101BD00040F008002168C8612068C06920F0040056
:101BE0002168C8612068C069296908432168C86103
:101BF00018E02946206800F057FC2068C06940F4CE
:101C000000602168C8612068C06920F48060216894
:101C1000C8612068C069296940EA01202168C8615B
:101C200000E000BF00BF00BF002084F83C0000BF00
:101C300000BF8BE710B504460CB9012010BD94F825
:101C40003D0028B9002084F83C00204600F026F82A
:101C5000022084F83D00211D206800F013FB0120C4
:101C600084F8460000BF84F83E0001213F20015562
:101C7000402001554120015500BF00BF012084F8DC
:101C8000420043200155442001554520015500BF25
:101C9000012084F83D000020D0E7000010B586B098
:101CA000044624492068884242D100BF2248806906
:101CB00040F00800204988610846806900F008006B
:101CC000019000BF00BF00BF0846C06940F002009D
:101CD000C8610846C06900F00200019000BF00BF63
:101CE0002020029002200390012004900320059000
:101CF00002A91248FFF70CF800BF00BF0E48806928
:101D000040F001000C4988610846806900F001003C
:101D1000019000BF00BF00BF0949486820F440603F
:101D200040F0E06040F40060486000BF00BF00BFCA
:101D300006B010BD0004004000100240000C01403D
:101D40000000014070B504460D4615B994F83E00F8
:101D50000BE0042D02D13F20005D06E0082D02D1EA
:101D60004020005D01E04120005D012801D00120FC
:101D700070BD1DB9022084F83E000EE0042D03D191
:101D800002213F20015508E0082D03D10221402007
:101D9000015502E002214120015501222946206817
:101DA00000F0BEFA1F492068884203D01E4920680F
:101DB000884201D1012000E0002028B12068406C59
:101DC00040F400402168486416492068884213D0D6
:101DD0001549206888420FD02068B0F1804F0BD0A1
:101DE00012492068884207D011492068884203D0F0
:101DF0001049206888420CD12068806800F00706EE
:101E0000062E0CD02068006840F0010021680860B0
:101E100005E02068006840F00100216808600020AB
:101E2000A6E70000002C01400034014000040040FF
:101E300000080040000C0040704700002DE9F0470A
:101E40000446206805682068C668206847694FF026
:101E50000008C14605F00F08B8F1000F0AD105F0DF
:101E6000200038B106F0200020B1204600F070FBC1
:101E7000BDE8F087B8F1000F71D007F0010018B984
:101E800006F4907000286AD005F0010030B106F425
:101E9000807018B1E06B40F00100E06305F00400D1
:101EA00030B107F0010018B1E06B40F00200E063D0
:101EB00005F0020030B107F0010018B1E06B40F00E
:101EC0000400E06305F0080048B106F0200010B9F6
:101ED00007F0010018B1E06B40F00800E063E06B30
:101EE00068B305F0200028B106F0200010B12046AC
:101EF00000F02EFB20684069C0F38019E06B00F011
:101F0000080010B9B9F1000F22D0204600F000FB04
:101F10002068406900F04000B0B12068406920F0BE
:101F2000400021684861606B50B11848616B48639C
:101F3000606BFEF785FD10B1606B416B88470CE06C
:101F40002046FFF779FF08E02046FFF775FF04E021
:101F50002046FFF771FF0020E06389E7FFE705F007
:101F6000800030B106F0800018B1204600F0BEFBC2
:101F70007EE705F0400030B106F0400018B1204681
:101F800000F0D6FA74E700BF72E70000FD240008F5
:101F900010B504460CB9012010BDA06900B100E0E5
:101FA00000BF94F8390028B9002084F83800204692
:101FB00000F028F8242084F839002068C06820F454
:101FC00000502168C860204600F012FB20680069BC
:101FD00020F49040216808612068406920F02A00C0
:101FE000216848612068C06840F400502168C860DA
:101FF0000020E063202084F8390084F83A000020B3
:10200000CAE7000010B586B0044628492068884217
:102010004AD100BF00BF2648806940F0040024492F
:1020200088610846806900F00400019000BF00BF8D
:1020300000BF00BF00BF0846806940F0040088610F
:102040000846806900F00400019000BF00BF00BF97
:1020500000BF00BF0846806940F4804088610846A0
:10206000806900F48040019000BF00BF00BF4815A8
:10207000029002200390012004900320059002A901
:102080000C48FEF745FE4FF480600290002003905C
:1020900002A90848FEF73CFE2520FFF736F8032288
:1020A00011462520FFF741F806B010BD0038014069
:1020B000001002400008014010B5034693F83A00B2
:1020C00020282FD101B10AB9012010BD00BF93F81B
:1020D0003800012801D10220F7E7012083F83800F9
:1020E00000BF99629A85DA850020D863222083F8A0
:1020F0003A0000BF002083F8380000BF1868C068AD
:1021000040F480701C68E0601868406940F001008D
:102110001C6860611868C06840F020001C68E060BE
:102120000020D2E70220D0E710B5044620492068FD
:1021300088423BD11F48008800F4004088BB1D48FE
:10214000008800F4804070B11B4800780A2803D052
:1021500000201849088024E01648008840F4004018
:10216000144908801DE0144800780D2806D1114854
:10217000008840F480400F49088012E00E48007843
:102180000C490988C1F30D010C4A505409480088D4
:10219000401C0849088008460088C72801DD002047
:1021A0000880012204490648FFF786FF10BD0000A1
:1021B000003801400C0000200E000020E400002048
:1021C000AC010020704700BFFEE700BFFEE770478C
:1021D0007047000008B508490968C9084FF47A72C9
:1021E000B1FBF2F14143009100BF00BF00994A1ECC
:1021F00000920029F9D108BD00000020704710B5F9
:10220000FEF73CFF10BD00001148006840F00100DF
:102210000F490860084640680E4908400C4948606C
:10222000084600680C4908400949086008460068EB
:1022300020F4802008600846406820F4FE004860D2
:102240004FF41F008860C80304490860704700000D
:10225000001002400000FFF8FFFFF6FE08ED00E06E
:1022600010B507480068006900F0010030B100F0C7
:10227000C7FB6FF0010002490968086110BD00004A
:10228000EC01002010B50268204B98420ED0204B84
:1022900098420BD0B0F1804F08D01E4B984205D029
:1022A0001D4B984202D01D4B984203D122F0700280
:1022B0004B681A43154B98420ED0154B98420BD0E1
:1022C000B0F1804F08D0134B984205D0124B984282
:1022D00002D0124B984203D122F44072CB681A43C9
:1022E00022F080034C6943EA040202608B68C362F7
:1022F0000B688362054B984202D0054B984201D18E
:102300000B6903630123436110BD0000002C0140F1
:10231000003401400004004000080040000C004070
:1023200030B501F01F05012404FA05F3046A9C434B
:102330000462046A01F01F0502FA05F52C430462E9
:1023400030BD000030B5056A25F001050562026A5E
:102350004368846924F0700424F003040D682C435E
:1023600022F002028D682A43104DA84200D103E0FA
:102370000F4DA84206D100BF22F00802CD682A43C3
:1023800022F00402094DA84202D0094DA84207D10B
:1023900023F4807323F400734D692B438D692B4321
:1023A000436084614D684563026230BD002C01408A
:1023B0000034014030B5056A25F010050562026A57
:1023C0004368846924F4E04424F440740D6844EACA
:1023D000052422F020028D6842EA0512124DA8421F
:1023E00000D103E0114DA84207D100BF22F08002C6
:1023F000CD6842EA051222F040020B4DA84202D0FD
:102400000A4DA84209D123F4806323F400634D6987
:1024100043EA85038D6943EA8503436084614D681F
:102420008563026230BD0000002C01400034014091
:1024300030B5056A25F480750562026A4368C4698F
:1024400024F0700424F003040D682C4322F400727D
:102450008D6842EA0522124DA84200D103E0114DD9
:10246000A84207D100BF22F40062CD6842EA0522EB
:1024700022F480620A4DA84202D00A4DA84209D136
:1024800023F4805323F400534D6943EA05138D6907
:1024900043EA05134360C4614D68C563026230BD01
:1024A000002C01400034014030B5056A25F4805508
:1024B0000562036A4468C26922F4E04222F4407271
:1024C0000D6842EA052223F400538D6843EA053380
:1024D000084DA84202D0084DA84204D124F48044FB
:1024E0004D6944EA85144460C2614D680564036225
:1024F00030BD0000002C01400034014070B505469D
:102500006C6A0020E085E0842046FFF795FC70BDF2
:102510000168C96821F490710268D1600168496955
:1025200021F0010102685161202180F83A107047C2
:1025300010B504462068C06820F040002168C860DB
:10254000202084F839002046FFF73CFE002010BD13
:1025500070B5044694F83A00222847D1A068B0F537
:10256000805F0CD1206950B90025A66A20684068B8
:10257000C0F308003080A06A801CA06215E0A56A44
:102580000026A068B0F5805F03D0A06828B9206954
:1025900018B920684068287004E02068406800F09E
:1025A0007F002870A06A401CA062E08D401E80B2AF
:1025B000E085C8B92068C06820F020002168C860A4
:1025C0002068C06820F480702168C8602068406975
:1025D00020F0010021684861202084F83A0020465C
:1025E000FFF7A2FD002070BD0020FCE70220FAE703
:1025F00070B504462168096921F44051E26811432D
:10260000226811612269A1681143626941EA0205E9
:102610002168C96841F20C62914329432268D16064
:102620002168496921F44071A2691143226851610E
:102630002D4A2168914202D1FEF7D8FF01E0FEF752
:10264000C5FF00EBC00101EB001162689200B1FB15
:10265000F2F100EBC00202EB001263689B00B2FBD8
:10266000F3F26423B2FBF3F202EBC20303EB0212B8
:10267000A1EB8201322202EB01116422B1FBF2F1E3
:1026800001F0F00100EBC00202EB001263689B0056
:10269000B2FBF3F26423B2FBF3F201EB021200EBA4
:1026A000C00101EB001163689B00B1FBF3F100EB8B
:1026B000C00303EB00136668B600B3FBF6F36426B1
:1026C000B3FBF6F303EBC30606EB0313A1EB8301A5
:1026D000322303EB01116423B1FBF3F101F00F018D
:1026E00011442268916070BD00380140014691F8A4
:1026F0003900212828D18868B0F5805F0BD108699E
:1027000048B90A6A1088C0F308000B685860086A64
:10271000801C086205E00B6A581C086218780B6878
:102720005860C88C401E80B2C88458B90868C06818
:1027300020F080000B68D8600868C06840F0400056
:102740000B68D860002070470220FCE710B50248F3
:10275000FFF774FB10BD0000AC01002000BFFEE7D6
:1027600002480068C0F30220704700000CED00E052
:1027700010B5002804DB0A07130E054A135406E0BF
:102780000A07140E034A00F00F031B1FD45410BD98
:1027900000E400E018ED00E000BF7047124909684E
:1027A00021F00101104A11601049896821F00101EE
:1027B0000E4A916000BF0D49896801F001010029AE
:1027C000F9D10A49C860896841F00101074A91605E
:1027D0000549096841F00101034A11601146096881
:1027E00041F480011160704708240140000002405C
:1027F00001B58EB0182104A8FDF709FD00BF4448BB
:10280000806940F40070424988610846806900F49C
:102810000070009000BF00BF00BF0846806940F014
:10282000040088610846806900F00400009000BF41
:1028300000BF00BF0846406940F0010048610846FB
:10284000406900F00100009000BF00BF022004902A
:102850008003069004A8FEF755FD02200A9003208D
:102860000B900AA92B48FEF753FA2B482B49086016
:10287000002048600021294881608021C160490012
:10288000016189004161002181614FF48051C16182
:10289000FEF7AAF900BF21482149086208461F49EE
:1028A000486200BF1F481E490860002048600021A0
:1028B0001B48816001210173016100210175816163
:1028C0004FF46021C161FDF70DFF1548FDF7D4FD00
:1028D0000120019002900720039001A91048FDF704
:1028E0004DFE032211460B20FEF71FFC0B20FEF7C6
:1028F0000CFC00230B494C3108480E9AFEF7BAF93C
:1029000000220EA90648FDF7DBFF0FB000BD000056
:10291000001002400008014008000240AC02002004
:10292000F0020020002401400149086070470000C7
:102930000400002010B504464FF47A7104FB01F046
:1029400000F002F810BD000070B5034600224FF001
:10295000E02675690D4E366803FB06F44FF0E0265D
:10296000B16910E04FF0E026B06988420BD0884290
:1029700002D20E1A324402E02E1A0E4432440146AC
:10298000A24200D300E0EDE700BF70BD04000020CC
:1029900030B587B004460D460E480F49086008461A
:1029A000456000218160C460FFF744F96020009019
:1029B000204604EBD07149100191022002900422BC
:1029C00069460548FFF7B8F804210348FFF7BAF94C
:1029D00007B030BD000400403402002010B50446AA
:1029E0002CB1002220210548FEF73CFB04E0012227
:1029F00020210248FEF736FB10BD00000018014000
:102A000010B520210148FEF723FB10BD001801403E
:102A100000B585B000BF00BF1748806940F00800CE
:102A2000154988610846806900F00800009000BFE1
:102A300000BF00BF00BF00BF0846806940F04000F3
:102A400088610846806900F04000009000BF00BF28
:102A500000BF2020019001200290039003200490E9
:102A600001A90648FEF754F92020019001A9044865
:102A7000FEF74EF905B000BD00100240000C014009
:102A80000018014000244FF00108FEF703FB4FF44B
:102A9000E01000F057F84820FFF746FF4FF4E13010
:102AA00000F084F8FFF7B4FF01214FF6FD70FFF747
:102AB0006FFF2148FFF79CFE6420FFF76FFE0020A8
:102AC000FFF78CFF37E01D480078012814D100275C
:102AD000002605E0184830F816000744701C86B23E
:102AE000642EF7DB6420B7FBF0F085B200201349B9
:102AF00008706420FFF752FE0A20FFF71BFF2846EC
:102B0000E91705EB9171C1F38F05B8F1000F03D000
:102B1000681C204484B202E0681C201A84B24EF67D
:102B20006020844201DD4FF000080CB94FF001082D
:102B3000034800688463C6E71C00002019000020D9
:102B40003402002030B58FB005460124282105A8A5
:102B5000FDF75DFB14216846FDF759FB0120059048
:102B6000000406900020079002200C90C1030D91F4
:102B70000E9505A8FEF794FD04460CB100BFFEE7D4
:102B80000F20009002200190002002904FF48060FE
:102B900003900020049002216846FEF74BFC044697
:102BA0000CB100BFFEE70FB030BD000010B5044609
:102BB00009480A4908600846446000218160C160F4
:102BC000016181610C214161FFF7E2F901220449B1
:102BD0000248FFF771FA10BD00380140AC01002037
:102BE0000E000020000000000000000001020304AD
:102BF0000607080900000000010203041C2C00085D
:102C0000000000201C0000006C010008382C0008A7
:102C10001C00002064090000880100080024F40062
:102C200000000000000000000000000000000000A4
:082C300010000000010000008B
:0400000508000131BD
:00000001FF
